:1040000000800020197800007B7600007B7600009D
:1040100000000000000000000000000000000000A0
:104020000000000000000000000000007B7600009F
:1040300000000000000000007B760000E574000036
:104040007B7600007B7600007B7600007B760000AC
:104050007B7600007B7600007B7600007D7600009A
:104060007B760000058900007B7600007B760000EF
:10407000F56F00007B760000158900007B7600005C
:104080007B7600007B7600007B7600007B7600006C
:10409000498700007B7600007B7600007B7600007D
:1040A0007B7600007B7600007B7600007B7600004C
:1040B00010B5064C2378002B07D1054B002B02D0FE
:1040C000044800E000BF0123237010BD0405002058
:1040D000000000004CC8000008B5084B002B03D0BE
:1040E0000748084900E000BF07480368002B03D0D9
:1040F000064B002B00D0984708BDC04600000000CA
:104100004CC8000008050020000500200000000049
:10411000084B1A68002A01D1074A1A601A68074931
:104120001018884202DC1860101C01E00120404297
:104130007047C04620050020F0100020FF7F0020BF
:1041400000207047012040427047012040427047E4
:1041500070470020704710B5041C2168006905F005
:10416000D9FB0C2251436368C85810BD10B5041C1C
:104170002168006905F0CEFB0C2251436368591891
:10418000886810BD70470000014B18687047C04632
:104190008C070020014A024B1A60704789410000D9
:1041A000AC050020014A024B1A607047D946000056
:1041B000AC050020014A024B1A607047B54600006A
:1041C000AC05002008B5024B1B68984708BDC046E7
:1041D0003005002000000000F0B5061C87B00F1C61
:1041E000151E01D06C4C00E06C4C301C391C5D4B32
:1041F0005B4A05F011FC00280DD02A1C594958488B
:10420000FFF7EAFF321C3B1C06F0BEFE554B544A3A
:1042100006F050FAA0E0301C391C534A534B05F00D
:104220000FFC002827D1301C391C4E4B4C4A05F09E
:10423000F3FB00281CD1301C391C4B4A4B4B05F0BA
:10424000FFFB002817D1301C391C464B444A07F0AD
:104250002BF9474A474B06F097FE474A474B06F073
:1042600029FA474A474B05F009FF061C0F1C04E0DA
:10427000434E444F01E0444E444F0125A268E36899
:1042800002920393101C191C321C3B1C05F0CEFB40
:1042900000285BD0231C10330593301CA269E3690E
:1042A000391C0092019305F0C1FB00284ED0059BFC
:1042B000246818680494001B07F054FC321C3B1C53
:1042C000041C0D1C0098019905F0A6FB009A019BA7
:1042D000002801D1321C3B1C0298039905F0B0FB69
:1042E000029A039B00280BD1321C3B1C00980199B9
:1042F00005F092FB009A019B002801D1321C3B1C67
:10430000101C191C029A039B07F0CEF8021C0B1C10
:10431000201C291C06F038FE029A039B061C0F1C69
:104320000098019907F0C0F8021C0B1C301C391CC6
:1043300006F0C0F9061C04980F1C07F013FC021CC1
:104340000B1C301C391C05F099FE05E001351034BA
:104350000B2D93D10E480F4907B0F0BDC046C046A3
:104360000000000000002440000000000000594050
:104370000000000000804640000000000080564021
:1043800000000000000039400000000000805140A3
:10439000000000000000000038020020F0000020B3
:1043A000F8B5051C0E1C171C041C631BB34206DA6F
:1043B00020787942794103F0B7FC0134F5E7F8BD84
:1043C00008B5034802210022FFF7EAFF08BDC046F6
:1043D000F8BF000070B5FFF7C9FE0D4C051CC6B252
:1043E0006B425D41321CEDB2201C0121FFF7D8FF6A
:1043F0002A1C601C0121FFF7D3FF321CA01C0121E5
:10440000FFF7CEFF2A1CE01C0121FFF7C9FF70BD9A
:1044100000C1000038B5FFF7A9FE0A4B051C186063
:104420000024094B0121E05C2B1C234199430134FA
:1044300003F07AFC032CF4D169426941122003F0A5
:1044400073FC38BD8807002008C0000038B5122072
:10445000012103F0CBFB1220012103F065FC0024B5
:10446000064B0121E55C0134281C03F0BFFB281C2E
:10447000012103F059FC032CF2D138BD08C0000023
:10448000F7B5514900010A184758107B53689668E0
:10449000032800D98BE005F0EFF9023E7B82181C5F
:1044A000002103F041FC002E32DD301C07F05AFBE6
:1044B0000122FFF791FE3F4B3D4A041C0D1C05F005
:1044C000BFFAFF260190002822D1201C291C3A4A5D
:1044D0003A4B05F0A1FA019E002819D1201C291C95
:1044E000344B334A05F0ACFAFF26002810D1344A89
:1044F000344B201C291C06F047FD2E4B2C4A06F09D
:10450000D9F82D4A2D4B05F0B9FD07F0F7FA061C36
:10451000381C311C49E0181C012103F005FC002E59
:1045200032DD301C07F01EFB0022FFF755FE214B49
:104530001F4A041C0D1C05F083FAFF260190002879
:1045400022D1201C291C1C4A1C4B05F065FA019E37
:10455000002819D1201C291C164B154A05F070FAA9
:10456000FF26002810D1164A164B201C291C06F0E5
:104570000BFD104B0E4A06F09DF80F4A0F4B05F04D
:104580007DFD07F0BBFA061CFF21891B381C0CE0DF
:10459000181C002103F0C8FB381C002105E0181C82
:1045A000012103F0C1FB381CFF2103F047FAF7BDDE
:1045B0000000000000005940000000000000000062
:1045C0000000000000E06F40E8020020C046C04646
:1045D00008B50520012103F0A7FB0420FF2103F00B
:1045E0002DFA0A20012103F09FFB0C20FF2103F08C
:1045F00025FA08BD10B5FFF7B9FD0121041C0520FF
:1046000003F092FBFF231C1B211C042003F016FA6D
:104610000A20012103F088FB0C20211C03F00EFA74
:1046200010BD08B50520002103F07EFB0420002109
:1046300003F004FA0A20002103F076FB0C2000218D
:1046400003F0FCF908BD10B5FFF790FD0021041C34
:10465000052003F069FB211C042003F0EFF90A2078
:10466000002103F061FB0C20211C03F0E7F910BDD1
:1046700008B5FFF77BFD0022011C082003F018FF9E
:1046800008BD08B5082003F0BDFE08BD70B58668FA
:10469000051C0024B44209D0211C281C05F029F86F
:1046A000011C034802F0E7FD0134F3E770BDC0468A
:1046B000B808002038B5041C02F0FEFE051C201CC2
:1046C000FFF749FD011CE068B4242D1A201C684343
:1046D00005F0DCF8201A38BD38B5041C02F0ECFEF9
:1046E000051C201CFFF737FD011CE0682D1AB420C3
:1046F000684305F0CBF838BD70B5041C02F0DCFE51
:10470000237A051C002B14D0E368C61A201CFFF77F
:1047100022FD86420DD92069E560013020612168C3
:1047200005F0F8F80C2359436368201C59184B68AE
:10473000984770BD38B5012303725B420361041CC6
:1047400002F0BAFE051C201CFFF705FD2D1AE560DE
:1047500038BD000008B5044802F03EFB03480021C4
:10476000022202F0E7F908BD0408002084060020B8
:1047700008B5044802F030FB03480021022202F091
:10478000D9F908BD040800209007002008B5FFF7FC
:10479000EFFF08BD08B52B20012103F027FA002107
:1047A0002B2003F0C1FA012002F08CFE2B20012106
:1047B00003F0BAFA0A2002F085FE024B00221A70BA
:1047C00008BDC0468106002013B50221041C03F079
:1047D0000DFA002002F076FE201C03F0F1F8FF2312
:1047E00000210093044A0B1C04F0EAFE01233F2839
:1047F00000DC0023D8B216BDFF030000F0B585B081
:104800000191052800D991E0421CD200D2B2131CBC
:10481000282A00D92823C400DBB2E4B20393251C64
:1048200000260127039B9D4230D2052D0BD92B1C5E
:10483000083B0D2B07D91A2D05D0143B012B02D9AB
:104840000A3B012B1DD83A4B5B5D012B19D8019A0D
:104850003A40511E8A41D2B20292012B01D13E430D
:104860000BE00299002908D0324AAB00D358012B43
:1048700003D0281C022103F0B9F9029A2D49AB009C
:10488000CA507F000135FFB2EDB2CBE70199CDB23E
:1048900001210E4207D0201C0838052C00D82030FA
:1048A000294003F041FAB20707D5E01F042C00DCD1
:1048B0002030A907C90F03F037FA730707D5A01FE7
:1048C000032C00DC20306907C90F03F02DFA3107F3
:1048D00007D5601F022C00DC20302907C90F03F028
:1048E00023FAF20607D5201F012C00DC2030E90650
:1048F000C90F03F019FAB30608D5002C01D0E01E49
:1049000000E01D20A906C90F03F00EFA710604D5B8
:104910006D06A01EE90F03F007FA76B2002E05DA45
:10492000019A601E51B2C90F03F0FEF905B0F0BD47
:10493000B8050020E005002008B5031E272B1BD872
:1049400005280BD9021C083A0D2A07D91A2805D0C8
:10495000143A012A02D90A3A012A0DD8074AD25C30
:10496000012A09D106489A001150181C0838052B55
:1049700000D8203003F0D8F908BDC046B8050020A3
:10498000E005002038B50A4C05016319586801217B
:1049900003F02CF92859012103F028F912200121F4
:1049A00003F024F91220012103F0BEF938BDC046FE
:1049B000E802002070B5041C0D1C27284ED8284B97
:1049C0001B5C032B19D0042B48D105280BD9031CE1
:1049D000083B0D2B07D91A2805D0143B012B02D90F
:1049E0000A3B012B37D81F4B03201B5D291C584362
:1049F0001D4B181801F0B0FF2DE0011E05290DD93F
:104A00000839CBB20D2B0AD91A2808D0031C1C3B3D
:104A1000012B04D90A3B012B1DD800E018311823C3
:104A20005943124A51181226885F191C01300AD1C5
:104A3000231C083B052C00D863184B43D2181421C3
:104A4000535E013307D0201C0838052C00D82030D5
:104A5000291C02F0F3FF064BA400E55070BDC046D0
:104A6000B8050020800500202807002008C20000AB
:104A7000E005002010B5041E052C18D801220C4BAF
:104A80008240002904D1141C1A68A2431A600EE067
:104A900019680A431A60074B1B78002B07D118309E
:104AA00002F08EFF211C021C034802F08DFB10BD9A
:104AB0004007002070050020B808002070B50D28C0
:104AC0001CD80F4D84000023012913D12F2A04DDA7
:104AD000303A3C233B2A00D8D3B20A4A9B009E5866
:104AE0002B599E420AD0C0B2311C002203F0E0FCD8
:104AF0002E5103E0C0B22B5103F084FC70BDC046C0
:104B0000380500200CC0000037B51A4C201CFFF7F8
:104B1000F3FD201C1430FFF7EFFD201C2830FFF7B9
:104B2000EBFD02F0C9FCE268851A201CFFF713FBBD
:104B3000C20F12185210954205D9FF23002100938D
:104B4000A81A0B1C03E000210091281CFF2304F08D
:104B500037FD0024051C084B1B682341DA0704D5E8
:104B6000064B291CE05C02F069FF0134032CF2D1F2
:104B700037BDC046E40100208807002008C00000BF
:104B800010B50121041C007803F030F86078012191
:104B900003F02CF8201C02210022FFF701FC10BDBD
:104BA00038B5364C201CFFF7EBFFA01CFFF7E8FFE1
:104BB000002403206043324BFA221818314B520074
:104BC000E15C314B013401F0BFFC042CF1D12F4DDD
:104BD000281CFFF7D5FFFFF739FC0122281C022112
:104BE000FFF7DEFB1C20002103F000F800211D2050
:104BF00002F0FCFF002002F0A9FE201C012102F0BF
:104C0000F5FF0520012102F0F1FF0A20012102F049
:104C1000EDFF01210C2002F0E9FF1D48FFF78AFD9E
:104C20001C48FFF787FD1C4B00221A601B4A1C4BD7
:104C30001C481A60FFF77EFD1B48FFF77BFD1B48F1
:104C4000FFF778FDFFF794FD194C201C01F0DCFE06
:104C5000184B1880201C01F0DAFE174B1880201C1E
:104C600001F0D8FE154BE12118800902144803F029
:104C70005DFF144A144B1A6038BDC04600C10000E5
:104C800028070020DCC10000C4090000F8BF0000B4
:104C900008030020300000208C070020894100001C
:104CA000AC05002000000020A00100201C03002013
:104CB000900700202E050020A8060020B605002041
:104CC000340B0020C963000030050020164B174A42
:104CD0001B6970B5934226D0154A934223D0154BD9
:104CE0001B78002B1FD002F0E7FB134B051C196843
:104CF0001E1C421A642A16D9281C642104F0C6FD21
:104D00000124204206D01520211C02F06FFF15203F
:104D1000002105E01520211C02F068FF1520211C50
:104D200003F002F8356070BD10070020380900203C
:104D3000340B0020810600200C07002008B5034832
:104D400002210122FFF72CFB08BDC046F8BF00007E
:104D5000F8B5131C1C4A041C10780F1C07282DD80A
:104D60001A491B4D0E78002E07D01A4A9219013AA3
:104D70001278013E2A550E7002E02855013010705D
:104D8000154A002F0EDD002B0CDD295D0320484362
:104D9000211C10180839052C00D820313A1C01F0CC
:104DA000D3FB0FE02B5D03205843211C101808395A
:104DB000052C00D8203101F005FD03E00748084923
:104DC00002F053FAF8BDC0464407002080060020D8
:104DD000800500207805002028070020B808002062
:104DE00004C1000038B5104D041C2B5C032058434F
:104DF0000E4B181801F00EFD0D492B5D0A789342F9
:104E000004D1002B0DD0013B0B700AE0002A08D022
:104E100008490A780132D2B20A7007498A18013A61
:104E20001370FF232B5538BD800500202807002074
:104E300044070020800600207805002070B5084B4C
:104E4000041C1D5C074E0D40002A02D1335CAB42AE
:104E500005D00548211C2A1C02F0C6F9355570BD45
:104E60007007002028050020B8080020F8B5071EAC
:104E7000052F00D9A6E0544B1954002900D1A1E018
:104E8000524BC400E4B21E5C052C04D9231C083B21
:104E9000DBB20D2B7FD8F3077DD5201C0838052CFD
:104EA00000D8203002F068FF002874D00125042CBF
:104EB00002DDE31F0D2B09D8B30707D5E01F042C33
:104EC00000DC203002F058FF002866D1032C05DDFD
:104ED000A31FDBB20D2B01D9182C09D1730707D5FD
:104EE000A01F032C00DC203002F046FF002857D121
:104EF000022C02DD631F0D2B09D8330707D5601F75
:104F0000022C00DC203002F037FF00284BD1012CAE
:104F100005DD231FDBB20D2B01D9182C09D1F306B7
:104F200007D5201F012C00DC203002F025FF0028CF
:104F30003CD1002C04D0E31E0D2B01D9182C0AD132
:104F4000B30608D5002C01D0E01E00E01D2002F0C1
:104F500013FF00282DD1A01EC3B20D2B01D9202C88
:104F600006D140231E4203D002F006FF002823D1C1
:104F7000601EC3B20D2B01D9202C06D176B2002EB3
:104F800003DA02F0F9FE002819D1381C291C01228D
:104F9000FFF754FF16E0002589E702231D4395E73C
:104FA00004231D43A4E708231D43B0E710231D433A
:104FB000BFE720231D43CEE740231D43D8E78023CE
:104FC0001D43E2E7F8BDC046B00500207007002091
:104FD000F8B5A64D2B78002B3DD0A54B01241E78AB
:104FE000264200D10DE1182002F0C6FE002800D1B3
:104FF00007E102273E4205D0192002F0BDFE00283D
:1050000000D000E104273E4205D01A2002F0B4FE91
:10501000002800D0F9E008273E4205D01B2002F00E
:10502000ABFE002800D0F2E010273E4205D01C2045
:1050300002F0A2FE002800D0EBE020273E4205D07F
:105040001D2002F099FE002800D0E4E00020211C81
:10505000021CFFF7F3FE6B78002B4FD0844B01242A
:105060005E78264200D1D8E0002002F085FE0028BC
:1050700000D1D2E002273E4205D0012002F07CFEA2
:10508000002800D0CBE004273E4205D0022002F0E9
:1050900073FE002800D0C4E008273E4205D003205C
:1050A00002F06AFE002800D0BDE010273E4205D085
:1050B000042002F061FE002800D0B6E020273E4226
:1050C00005D0052002F058FE002800D0AFE04027B0
:1050D0003E4205D0062002F04FFE002800D0A8E096
:1050E00076B2002E05DA072002F046FE002800D036
:1050F000A1E00120211C0022FFF7A0FEAB78002BCD
:105100003AD05B4B01249E78264200D196E00820DD
:1051100002F032FE002800D190E002273E4205D086
:10512000092002F029FE002800D089E004273E4231
:1051300005D00A2002F020FE002800D082E00827D7
:105140003E4204D00B2002F017FE00287CD110272D
:105150003E4204D00C2002F00FFE002876D120271A
:105160003E4204D00D2002F007FE002870D102203C
:10517000211C0022FFF762FEEB78002B1ED03C4B77
:105180000424DE78264265D0122002F0F5FD0028C6
:1051900060D010273E4204D0142002F0EDFD00281C
:1051A0005AD120273E4204D0152002F0E5FD002808
:1051B00054D10320211C0022FFF740FE2B79002B45
:1051C00016D02B4B40241E79264249D01E2002F0D7
:1051D000D3FD002844D076B2002E04DA1F2002F05E
:1051E000CBFD00283ED10420211C0022FFF726FE23
:1051F0006B79002B39D0002105200A1CFFF71EFE19
:1052000033E00024F5E63C43FCE63C4303E73C4343
:105210000AE73C4311E73C4318E700242AE73C43F4
:1052200031E73C4338E73C433FE73C4346E73C43F8
:105230004DE73C4354E780231C435AE700246CE7C6
:105240003C4373E73C437AE73C4380E73C4386E7D3
:105250003C438CE700249CE73C43A2E73C43A8E79F
:105260000024B8E780231C43BDE7F8BDB00500204B
:1052700070070020034B00221A70034BFF221A70A4
:105280007047C04682060020E4030020F8B59D4E1A
:10529000041C335C0D1C7F2B00D132E1062B07D19F
:1052A000994B1B78002B03D0062901D0FFF7E2FFB2
:1052B000052C0BD9231C083B0D2B07D91A2C05D024
:1052C000143B012B02D90A3B012B19D8042D0CD019
:1052D0008E4B1B5D072B08D8032043438C48C01816
:1052E00001F082FB002800D0F7E0052C08D8201C34
:1052F000A91E1830C0B24B425941FFF7BBFB06E074
:10530000231C083B0D2B02D91A2C00D0E9E0E2083F
:10531000804BD2B2002D01D00B2D07D107212140A7
:1053200001208840011C985C014306E007202040D2
:1053300001218140081C995C81439954764BA70058
:105340000022FA500B2D00D9C2E0281C04F094FA78
:10535000104406649CC0B9C0C0C0C028052C00D948
:10536000CFE0201C1830002102F040FC0223ADE009
:10537000201E05280ED90838C3B20D2B0BD91A2CC4
:1053800009D0231C1C3B012B05D90A3B012B00D95A
:10539000B7E000E01830002102F028FC002395E07F
:1053A000201E05280ED90838C3B20D2B0BD91A2C94
:1053B00009D0231C1C3B012B05D90A3B012B00D92A
:1053C0009FE000E01830022102F010FC0B23524D48
:1053D00033550123EB5194E0201E05280ED90838DF
:1053E000C3B20D2B0BD91A2C09D0231C1C3B012B4B
:1053F00005D90A3B012B00D983E000E018300021D9
:1054000002F092FC201C0838052C00D82030012125
:1054100002F0ECFB012359E0211E05290DD90839C2
:10542000CBB20D2B0AD91A2C08D0231C1C3B012B04
:1054300004D90A3B012B64D800E0183118235943E2
:10544000364A51181225485F191C01300AD1231C15
:10545000083B052C00D863184B43D2181421535E27
:1054600001334ED0201C0838052C00D820300121F3
:1054700002F0BCFB201C0838052C00D8203000218D
:1054800002F0DCFA032321E0052C0BD9231C083B96
:105490000D2B07D91A2C05D0143B012B02D90A3B3E
:1054A000012B2ED804233355184B1B5DFF2B22D024
:1054B000032043431648C01801F096FA002820D173
:1054C00019E0231C103B012B1BD80623335518E091
:1054D0001348144901F0C9FE13E0201CFFF782FCB9
:1054E00003E7231C1C3B012B00D810E70A3B012BD0
:1054F00000D923E70BE701214942201C0A1CFFF7D2
:1055000027FCF8BDB8050020820600208005002099
:105510002807002070070020E005002008C20000D6
:10552000B808002018C1000010B50024231C103B4F
:10553000012B03D8201C0621FFF7A8FE0134E4B29A
:10554000282CF3D1034B012203481A7001F044FCCC
:1055500010BDC046820600200408002038B5204D4A
:1055600001232B70002304333C2B05D01D4A00215E
:10557000D218043A1160F6E71B4B1B78002B01D0C0
:10558000FFF778FE0023194A00249C54184A9C54C3
:10559000184A9C540133062BF5D1E0B202210528AC
:1055A0000CD9031C083B0D2B07D91A2805D0143B36
:1055B000012B02D90A3B012B02D80121FFF766FE1D
:1055C0000D4BFF22E2540134282CE6D10B4A002374
:1055D00013600B4A2B7013700A4A137038BDC04613
:1055E000700500203805002082060020B00500204C
:1055F00070070020280500208005002040070020BB
:10560000800600204407002010B51C4C0523201CF8
:105610001B49022201F064FD201CE021194A01F01F
:1056200030FE201C9021184A01F02BFE201CC021C6
:10563000164A01F026FE201CD021154A01F021FE59
:10564000201CF421134A01F01CFE201CF521124AF3
:1056500001F017FE201CF021104A01F02FFE104A25
:10566000201CFF2101F026FE201C0E4901F02EFD1A
:10567000FFF774FF002002F069F910BDB8080020A0
:1056800029C10000B5490000FD470000754A00002F
:105690006D4E00008D52000039490000055A00008F
:1056A0005D5500001007002010B51820022102F0FF
:1056B0009DFA1920022102F099FA1A20022102F023
:1056C00095FA02211B2002F091FA0C4C201CFFF7E6
:1056D00057FAA01CFFF754FAFEF7B8FE084C201C3E
:1056E000FFF728F8201C1430FFF724F8201C28307E
:1056F000FFF720F8034A044B1A6010BD00C10000F8
:10570000E4010020094B00003005002008B5024BE1
:105710001B68984708BDC0462C00002038B51148CA
:105720001D2101F06BF9104B1D1CDC1C1B35E01E0C
:10573000033400F0FDFEAC42F9D10C4B0C48FA21C9
:10574000002289005A60996018600A4B0A489960E3
:105750000A495A6019601D211A615A6101F04EF917
:1057600038BDC046840600202807002078070020A6
:10577000C0BF00001007002090070020E0BF00001D
:1057800008B5011C014801F0EBFA08BD040800202F
:1057900008B5024801F0D5FAC0B208BD04080020DF
:1057A000F8B5071C0E1C151C224C4B1C10D0391CC4
:1057B000201C01F070FBF0B2FFF7E2FF201C01F0AB
:1057C000A8FB1D4B1868002803D001F095FE00E0EF
:1057D0000026201C391C2A1C01F058FB201C01F05B
:1057E000B5FA854202DA1548154906E0201C01F099
:1057F000ADFA854203DD1148124901F036FD124B26
:105800001F705E701F1C0026AE4207DB0235EAB235
:105810003B1C0A48772101F0FFFCF8BD201C01F079
:1058200095FA0028F2D0FFF7B3FFBB199870013644
:10583000EAE7C0460408002074050020B8080020EC
:1058400034C1000051C100004C07002070B5FFF7C3
:10585000BFFB254C201C01F07BFC261C002803D03C
:10586000201C01F04BFDF4E701F026FE1F4B204900
:105870001860204B09681A68801A884233D98A1840
:105880001A601824E5B22B1C183B052B13D81A4BB1
:105890001B19183B1B78022B0DD1184B1B68234199
:1058A000DA0708D5201C183002F08AF8291C021CDF
:1058B000301C01F089FC0134402CE3D1104D2B78D1
:1058C0007F2B10D800240023EB56A3420BDB0C23C4
:1058D00063430C4A0134985CD31859681A7AFFF76D
:1058E0005FFFE4B2EFE770BDB8080020A805002014
:1058F000E803002024050020B80500204007002010
:10590000E4030020AC060020F0B58BB0061C059126
:10591000039201F0D1FD0490314C2368201C9B6858
:105920009847051E04D02368201CDB689847F3E7DE
:10593000201C311C02F0ADFA019507A8284902F09D
:105940004DFD039A002A02D007A8002190470025A8
:10595000244BAA00D2580026101C029206F0ACFA82
:10596000071C099AD31B9E4210D20024BC4207D0C8
:10597000A11907A803F0BDFE029A135D834203D06C
:10598000BC4220D00136ECE70134EFE70135032DAE
:10599000DED101F091FD049A059B801A984203D94B
:1059A00007A803F018FE17E00A2001F08BFD002481
:1059B00007A803F010FE002C0ED1094802F0F3FEF8
:1059C000002809D0B9E70123022D02D1064A13703D
:1059D000002301930124EBE701980BB0F0BDC04612
:1059E00038090020FCBF00008106002008B50348EC
:1059F00003490022FFF788FF08BDC0466DC10000C3
:105A000088130000F0B50D1C89B0141C6D2800D15E
:105A1000C7E118D80F2800D111E203D80E2800D111
:105A200011E253E3692800D1F1E16B2800D04DE386
:105A3000B94DF021281C01F01EFC281C6C2101F03E
:105A40001AFC002640E176280ED006D86F2800D137
:105A5000F0E0702800D1AEE038E3782800D19AE079
:105A60007A2800D1D9E031E35378202118221A4056
:105A70000B4002D0A848A94942E02678082A23D042
:105A800009D8002A00D021E3A54F311C381C01F0B1
:105A900002FA022604E0102A2BD0182A50D015E36F
:105AA000AE420AD2A3195878A35DC001C018C0B293
:105AB0000236FFF765FEF6B2F2E7381C01F029FA6C
:105AC000462001F019FD01E3A378E178062D07D106
:105AD000C901627959182379D201D218D2B204E0EF
:105AE000CA01D2180121D2B24942301CFFF758FE38
:105AF000ECE28C4F3B785AB2062A04DD86488A498C
:105B000001F0B3FBE2E2A078E178062D07D1C901EC
:105B1000627941182079D2011218D2B204E0CA0188
:105B200012180121D2B249420133DBB23B700C247E
:105B30005BB263437D481E54C31859601A72C5E2B4
:105B4000784A107841B200290ADCFF231370BDE2C5
:105B50000C245C43754AA25CB24216D00133DBB21E
:105B60009942F5DA002310E05C1C072B0CD80C25B9
:105B70002E1C66436D4A6B43B75C96199F54776839
:105B8000D2185760337A1372E3B29942ECDA65495E
:105B9000013808709AE263781278DB01D318002B81
:105BA00001D0634A1360634B1B78002B00D08DE259
:105BB000FFF7BAFC8AE2042900D887E29678537886
:105BC000F60114799E191578D378E4011C19052D76
:105BD0000CD92B1C083B0D2B08D91A2D06D0143BD1
:105BE000012B03D90A3B012B00D96FE2524B5B5DBD
:105BF000072B08D8032043435048C01800F0F4FE98
:105C0000002800D05EE2281C311C221CFFF7A0F8FF
:105C1000281C0421FFF73AFB58E2012900D855E27D
:105C200013785278D2019A18454B002A00D10122EC
:105C30001A604BE2012900D848E25178022D07D0C2
:105C40009378DB011943032D02D0D3789B031943CA
:105C50002078FEF7AFFE39E2231C083B0D2B36D926
:105C60001A2C34D0143B012B31D90A3B012B2ED9ED
:105C7000231C083B0D2B65D91A2C63D0231C1C3B1D
:105C8000012B5FD90A3B012B5CD9231C083B0D2B50
:105C90007AD8281C042101F0EEFA281C0E2101F00C
:105CA000EAFA103C012C07D8281C062101F0E3FA7F
:105CB000281C012101F0DFFA281C7F21013601F0A8
:105CC000DAFA282E00D17FE0F4B2052CC4D8281CC3
:105CD000002101F0D0FA281C012101F0CCFA281C87
:105CE0000B2101F0C8FA281C012101F0C4FA281C7C
:105CF000012101F0C0FA281C012101F0BCFA052C99
:105D0000B6D8281C022101F0B6FA0A21281C01F09D
:105D1000B2FA311C183117E0B808002075C1000034
:105D200004080020E403002095C10000AC06002018
:105D3000740500208206002080050020280700202E
:105D4000E8030020311C083918235943CE4A511862
:105D50001227C85F191C01300AD1331C083B052CDF
:105D600000D873184B43D2181421535E013307D067
:105D7000281C032101F07FFA281C082101F07BFA7E
:105D8000052C00D981E784E71A2C00D181E7231C78
:105D90001C3B012B00D87CE70A3B012B00D980E794
:105DA00077E7002900D191E1B84C1578201CF0214B
:105DB00001F061FA201C6E2101F05DFA201C291C03
:105DC00001F059FA272D01D9B048ABE0B04B201CA7
:105DD000595D01F050FAAF4EAD00A9597F27394007
:105DE000201C01F048FAA959AB4B194204D0C91143
:105DF0003940201C01F03FFAC02371591B0219429F
:105E0000E2D0C902490E201C01F035FADCE79F4DB3
:105E1000F021281C01F02FFA281C6A2101F02BFA2E
:105E200000247F21052C02D8211C1831C9B201346D
:105E3000281CE4B201F01FFA282CF2D1C4E7107834
:105E4000517892780DE1002900D13FE11378012BC0
:105E500002D0022B6AD039E1012900D836E101F0E5
:105E60002BFB8E4D061C2B68C21AFA23DB009A42CC
:105E700002D9FEF76FFC2E60894E301C00F0C0FE88
:105E8000301C00F0C1FD051C301C00F0C0FD071CDB
:105E9000301C00F0BFFD6426802102904942281C7E
:105EA0007F227342009603F08BFB802149427F22C0
:105EB0007342051C0096381C03F082FB802173425C
:105EC000071C0096029849427F2203F079FB637811
:105ED000022B07D0032B07D0013B5A4253415B42B0
:105EE0001D4002E03D1C00E0051C684EF021301C06
:105EF00001F0C1F9301C0E2101F0BDF9301C012167
:105F000001F0B9F96178301C01F0B5F97F24291C42
:105F10002140301C01F0AFF9E911301C214001F0A3
:105F2000AAF9301CF72101F0A6F9CFE0012900D829
:105F3000CCE050780138032800D9C7E003F09CFC7E
:105F40000251838C00260296032904D99278E378C3
:105F5000D201D3180293534B534A1B69934205D085
:105F6000524A9B1A5F425F41039701E00226039663
:105F7000464EF021301C01F07EF9301C0E2101F05C
:105F80007AF9301C022101F076F9301C012101F070
:105F900072F9301CF72101F06EF9FEF7FBFB05A842
:105FA000434903F05FFB261D331BAB4213DA3778FE
:105FB0000A2F0ED005A8391C03F091FB0D2F08D134
:105FC000029905980022FFF79FFC05A8384903F0C5
:105FD0005CFB0136E8E7039F022F30D1FFF706FD97
:105FE0002DE0032972D99678D378F60105A83049B7
:105FF000F61803F037FB271D3B1BAB4205DA397857
:1060000005A803F06CFB0137F6E7204CF021201CBB
:1060100001F031F9201C0E2101F02DF9201C022184
:1060200001F029F9201C022101F025F9311C059805
:10603000204AFFF769FC201CF72101F01CF905A894
:1060400003F0C9FA42E0022940D09078D378C00129
:10605000C01801F071FF39E0042937D99078D17860
:10606000127905280CD9031C083B0D2B08D91A28D6
:1060700022D0143B012B1FD90A3B012B26D81BE051
:10608000052819DC183018E008C20000B808002004
:10609000B8050020E005002080FF00004807002030
:1060A000840600201007002038090020340B00204F
:1060B000D4C100008D46000008384B1E9941FEF700
:1060C000FDFC03E0281CFEF78DFE9CE509B0F0BD49
:1060D00038B50369041C002B0CD1094D281C02F0B3
:1060E00062FB002805D1074D281C02F0A7FC002800
:1060F00000D025612069002800D1034838BDC04682
:1061000038090020340B00207807002038B5041C23
:10611000FFF7DEFF03689B689847051E03D001F078
:10612000CBF9606107E001F0C7F96369C01A034B5E
:10613000984200D92561281C38BDC04610270000B0
:10614000F7B5584C201CFFF7E1FF574C002809D049
:10615000564D012323702B78002B03D0FFF754FA00
:1061600000232B704F4A1369514A934218D0514A69
:10617000934206D01420012101F038FD14200121A2
:1061800005E01420012101F031FD1420002101F06F
:10619000CBFD1520012101F029FD152001210DE085
:1061A0001420012101F022FD1420012101F0BCFD89
:1061B0001520012101F01AFD1520002101F0B4FD88
:1061C0002378002B11D00120011C01F00FFD0120CC
:1061D000011C01F0A9FD0020012101F007FD0020B4
:1061E000011C01F0A1FDFFF731FB2578002D58D1EE
:1061F0000120011C01F0FAFC291C012001F094FD92
:10620000281C012101F0F2FC281C012101F08CFD69
:10621000294E3323281CB360FEF732F93223B361D1
:106220000120FEF72DF9FA25AD002F1E0A2F00D907
:106230000A27381C01F046F91A48FFF767FF0028C3
:1062400002D00123237003E0FEF740FDED1BECD1EB
:106250001448FFF75BFF051E02D00123237020E0E6
:10626000FEF734FD1D2001F0ABFB64230093291CD5
:10627000124A2B1C03F0A4F94F2808DC0127281C24
:106280003773FEF7FDF802233377381C06E002234C
:10629000281C3373FEF7F4F801203077FEF7F0F88E
:1062A000D6E7F7BD1007002034050020EC030020DE
:1062B00038090020340B0020E8020020FF03000012
:1062C00008B5FFF705FF0368DB68984708BD08B508
:1062D000FFF7FEFE03681B69984708BD08B5FFF786
:1062E000F7FE03685B69984708BD38B5051C0520B3
:1062F0000C1C01F0E7F8281CFFF7EAFE0368211CDC
:106300001B68984738BD000010B5FEF743FA184CDB
:106310009621201C090202F0EFFA201C322102F023
:106320005AF8E1210902134C134802F0FFFB0A203E
:1063300001F0C8F8211C00221048FFF7E5FA0022FE
:10634000211C0F48FFF7E0FAFFF750FB00211D204A
:1063500001F04CFC002001F0F9FA0020FEF712FBDE
:106360000120FEF70FFB01F0A7F8064B186010BDE7
:106370003809002088130000340B0020A6C100005B
:10638000AEC100006C07002008B51920022101F001
:106390002DFC1B20022101F029FC192001F0ECFC4E
:1063A000002804D11B2001F0E7FC002802D0FFF7F1
:1063B000ABFF04E0FFF778F9014A024B1A6008BD11
:1063C000C54100002C000020F8B54B4C201C02F009
:1063D00035FB00280BD0201C02F0F6FA201C02F03E
:1063E0002DFB0028F7D1201C444901F063FD182043
:1063F00001F0C2FC012810D1192001F0BDFC0128D8
:106400000BD11A2001F0B8FC012806D11B2001F0A5
:10641000B3FC011C1520012901D01520002101F039
:1064200083FC1C20FEF7D0F9051C1D20FEF7CCF9DB
:106430000124002802D06C426C41E4B2304F381C79
:1064400000F0DEFB381C00F0DFFA061C381C00F000
:10645000DEFA051C381C00F0DDFA2A4A2A4B1788A0
:10646000BF1B39B28C4629491F880B887F1B191A1C
:1064700063465B433FB209B27F4349439C4667444E
:106480007F18FA2321499B009F4200DD01241E4B07
:1064900016801D800880002C02D00020011C01E025
:1064A000201C012101F040FC1948FEF725F9194C88
:1064B000201CFEF721F9184B201C1B689847174D2C
:1064C0002B6883420CD11648FEF716F91548FEF7E3
:1064D00013F91548FEF710F9142000F0F3FFF8BD8A
:1064E000124C2860261C0C36B442ECD0201C2968C3
:1064F00000F032FA0334F7E7340B002029C1000022
:10650000900700202E050020A8060020B6050020D8
:106510000803002030000020AC0500208C0700207C
:1065200000000020A00100201C03002028070020FC
:10653000044A1378072B02D8591C117000E0FF237E
:1065400003707047B8070020F7B51E1C0378019050
:106550000C1C151C072B00D904E1081C012101F0BB
:1065600045FB0198814B02783F21D200D75C201C6B
:106570008F430840391C0143D154221C0C3A51422C
:106580004A41211C0A39484241410A4306D1231F8E
:10659000012B03D9FA22764B520001E0754B764A63
:1065A000AA4200DD2A1C01994A70B34200DD331C67
:1065B000019AA01E9370714F0B286CD8704B714ECE
:1065C000714D03F059F9060D141619222B343B486E
:1065D000505C38215956201C01F044FB6B4B23E0E2
:1065E00050215956201C01F03DFB684B4EE06833AA
:1065F00025E08021595639E098215956201C01F098
:1066000031FB624B3B60022342E0B0215956201C13
:1066100001F028FB5D4B3B60032339E0C82159564C
:10662000201C01F01FFB5A4B3B60002325E0E021BA
:106630005956201C01F016FB554B27E0F83300217A
:106640005956201C01F00EFB524B534A1A6000238E
:10665000337001231EE0FF3311215956201C01F035
:1066600001FB4E4BE0E7942252009956201C01F0AA
:10667000F9FA484B484A1A60012333700AE0A02215
:1066800052009956201C01F0EDFA444B3B60012367
:10669000337000232B703B6841481A18002A03D03E
:1066A00040495A18002A01D13F490AE0394A3F4877
:1066B00012681218002A03D03D495A18002A02D144
:1066C0003C493D4A5180019828490278D2008A5CB1
:1066D000500647D42C4A2B481178384A002920D03C
:1066E0002C4B02241B681988A1431980198889B290
:1066F00019801D8880214900294319801D88402167
:106700000D431D8000780C304000C2521A88174893
:106710001443019A1C801378DB00C25C1143C154FE
:1067200020E01C6802218C431C601D68C0248C4042
:106730002C431C600078DC6B1030884018180C4328
:10674000DC6342601E4818641868014319600199AF
:1067500006480B78DB00C15C402001430348C1546C
:10676000C3185A6001990878FEBDC046BC070020D6
:10677000C4090000F0230000A4060000FC0700206C
:1067800008C2000000080020B907002000200042D5
:1067900000240042B4070020002C004200280042E0
:1067A00000DCFFBD00E0FFBD1A43000000D4FFBDC8
:1067B00000D8FFBD1B430000000C0040DC050000BA
:1067C000204E000038B502780E4BD200D35C9B06F9
:1067D0009B0E1A1C0C3A544262411C1C0A3C654236
:1067E0006C41224304D13C333F221340012B02D899
:1067F000054A064B02E0FA22054B5200FFF7A4FEC1
:1068000038BDC046BC070020A4060000F0230000ED
:10681000C409000010B501781A4AC9008B5C4020F9
:1068200083438B549B069B0E3B2119403E313F22F4
:106830001140012901D8144B05E0191C38311140D1
:10684000012905D8114B1A6802218A431A6018E001
:106850000D2B01D00B2B01D10D4BF4E7191C0C397A
:1068600048424141181C0A3844426041014303D167
:106870003C331A40012A04D8064B02211A888A4365
:106880001A8010BDBC0700200020004200240042F6
:1068900000280042002C004270B50278072A4AD82E
:1068A0002548D200135C9B069B0E1C1C0C3C6542C9
:1068B0006C411D1C0A3D6E4275412C4304D13C3392
:1068C0003F242340012B02D81C4C1D4B02E0FA232D
:1068D0001C4C5B00994203DB231E8B4200DD0B1C2A
:1068E00081184B60805C8006800E02380B2822D80D
:1068F00002F0C2FF0608141B0A0D101214181B1F09
:10690000114A10E0104A15E00F4AD36413E00E4A12
:10691000136510E00D4A06E00C4A0BE00C4A9BB2EE
:10692000138308E00B4A536405E0094A9BB2538382
:1069300001E0084A936470BDBC070020F02300000A
:10694000A4060000C4090000002000420024004208
:10695000002C00420028004237B502781D4BD200BF
:10696000D35C041C9B069B0E1A1C0C3A50424241FD
:10697000181C0A3845426841024304D13C333F2287
:106980001340012B0ED8144B99421EDCB420B429BD
:1069900002DCC843C0170840104B00210093B4220A
:1069A0000F4B0FE0F423FF3399420EDCB420B429DF
:1069B00002DCC843C01708400A4B00210093FA23A9
:1069C000B4225B0002F0FCFD011C201CFFF764FFF9
:1069D00037BDC046BC070020A3060000F02300001E
:1069E000A4060000C40900000278034BD200D05C6A
:1069F0004006C00F7047C046BC070020014B017025
:106A000003627047E12E65420423C05E704706238F
:106A1000C05E70470823C05E7047000070B5104C20
:106A2000051C0E1C0178201C00F035FA311C201CBE
:106A300000F096F90021201C00F038FA2978012294
:106A4000201C00F023FA201C00F080F9031C002019
:106A5000834203D0201C00F074F9C0B270BDC04660
:106A60000408002070B5174C0178051C201C00F0AC
:106A700012FA2A21201C00F073F9201C00F049FAB8
:106A800029780122201C00F001FA201C00F05EF998
:106A90000026B04203D0201C00F053F9C6B229787A
:106AA000201C00F0F8F9201C2A2100F059F90123DC
:106AB000311C9943201C00F053F9201C00F029FAE6
:106AC00070BDC0460408002070B5194C0178051C43
:106AD000201C00F0E0F92A21201C00F041F9201CC4
:106AE00000F017FA29780122201C00F0CFF9201CB1
:106AF00000F02CF90026B04203D0201C00F021F950
:106B0000C6B22978201C00F0C6F9201C2A2100F00A
:106B100027F9297C201C4B42594119231E43490067
:106B2000314300F01DF9201C00F0F3F970BDC046A0
:106B30000408002038B5041C01748270002901D0BB
:106B40002C4900E02C49042A03D1081C02F0ACFFB8
:106B500008E0082A01D0E16005E0081C8121C90590
:106B600003F006F9E0600D21201CFFF757FF234DCD
:106B70002178281C00F08FF92B21281C00F0F0F858
:106B80004021281C00F0ECF8281C00F0C2F90A2073
:106B900000F098FC201CFFF765FF2178281C00F00E
:106BA0007AF91121281C00F0DBF8C021281C00F024
:106BB000D7F8281C00F0ADF92178281C00F06BF9FB
:106BC000281C0E2100F0CCF8A378042B03D002215E
:106BD000082B03D100E00121281C01E0281C002122
:106BE00000F0BEF8281C00F094F9201CFFF76CFFA1
:106BF00038BDC04624977F3B24977F3C0408002083
:106C000070B5454D041C0178281C00F044F90021A2
:106C1000281C00F0A5F80021281C00F047F9237C6F
:106C200021780422002B00D00722281C00F02EF926
:106C3000281C00F08BF800286DD0281C00F081F88B
:106C4000237C6070281C002B3ED000F07AF8061CD4
:106C5000281C00F076F83602301880B2A08000B20E
:106C6000C3179B0E1818801103F0ACF9E16803F00C
:106C70007FF86061281C00F064F8061C281C00F0F6
:106C800060F83602301880B2E08000B2C3179B0E65
:106C90001818801103F096F9E16803F069F8A06113
:106CA000281C00F04EF8061C281C00F04AF836029A
:106CB000301880B2208100B2C3179B0E18188011C3
:106CC00003F080F9E16823E000F03BF840B2A080D7
:106CD000281C00F036F840B2E080281C00F031F8A3
:106CE00046B2E568B6B226810423E05E03F06AF995
:106CF000291C03F03DF860610623E05E03F062F9B1
:106D0000291C03F035F8A06130B203F05BF9291CAF
:106D100003F02EF8E06170BD04080020F8B5051CF2
:106D20000F1C161C0024B44208D02B68395D1B6868
:106D3000281C9847002801D00134F4E7201CF8BD36
:106D4000704708B5183001F023F908BD08B51830B0
:106D500001F02CF908BD08B5183001F02DF908BD77
:106D600038B5041C00690D1C01F040FA00280ED053
:106D7000A37D002B10D06034201C01F026F90028E0
:106D80000AD1201C291C01F0F4F8012005E020693B
:106D9000291C01F01FFA00E0002038BDF7B501936F
:106DA000FA239B0083600B4B00250833041C4560CD
:106DB000036018300F1C161C01F0D0F8201C603046
:106DC00001F0CCF8019B27612675A575201C637521
:106DD000FEBDC046E0C1000070B50D49041C00694D
:106DE00001F0C8FA206901F079F91826207D331CDA
:106DF0004343084D0821EB18595600F033FF607DDE
:106E000008214643AD19695600F02CFF70BDC046FD
:106E1000A086010008C20000F7B5041C0020151C64
:106E20000193824231D02069012201F093F9061CBE
:106E30002069002E24D001F004FA271C1837011C09
:106E4000381C01F096F801262069AE420ED001F000
:106E500061F90221206901F067F9206901F0F1F977
:106E6000011C381C01F085F80136EDE701F04AF904
:106E7000019B002B08D02069032101F055F903E0A4
:106E8000032101F051F9351CE8B2FEBD08B501231C
:106E9000FFF7C2FF08BD10B5031CA833041C19700E
:106EA000603001F071F80123A37510BDF8B5002220
:106EB000031C8275A833041C0F1C0069197801F0AB
:106EC00049F9002805D12069032101F02DF9022597
:106ED0001DE0261C6036301C01F068F800280FD039
:106EE000301C256901F054F8C1B2281C01F061F989
:106EF0000028EED12069032101F016F9032506E0F0
:106F0000051C002F03D02069032101F00DF9281C76
:106F1000F8BD08B50121FFF7C9FF08BD38B5041C4D
:106F2000006901F06CF9002863D0206901F075F95F
:106F300000280ED1206901F07AF900281FD02069BD
:106F400001F070F900281AD0206901F075F90028C5
:106F500015D1206901F0DEF82069032101F0E4F881
:106F6000231CB0331D68002D04D02368201C9B68AF
:106F70009847A847201C183001F006F839E020692E
:106F800001F055F9031C2069002B15D001F0C2F85F
:106F90002069032101F0C8F8206901F04DF90028AB
:106FA00027D0206901F034F90028FAD0AC342368E6
:106FB000002B1ED098471CE001F02AF9002818D0B9
:106FC000251C1835281C01F000F8031C2069002B33
:106FD00002D001F097F808E001F033F9011C281CF9
:106FE00000F0C7FF206901F095F82069032101F046
:106FF0009BF838BD08B50248FFF790FF08BDC046B2
:107000000408002008B50348034910221123FFF7A4
:10701000C5FE08BD04080020F809002070B5061C54
:1070200000687F2403680D1C1B6821409847306866
:10703000E911036821401B68984770BD08B50068D6
:10704000F02103681B68984708BD08B50068F72160
:1070500003681B68984708BD10B5041C0068F92137
:1070600003681B6898472068022103681B689847DB
:107070002068052103681B68984710BD38B503795F
:10708000041C002B21D0FFF7D9FF20687921036869
:1070900002251B6898472068A268036811781B685E
:1070A00098472068A268036851781B68984723793D
:1070B000AB4207D9A368201C595D0135FFF7AEFF2D
:1070C000EDB2F4E7201CFFF7C0FF38BD10B501603A
:1070D000041CFFF7C1FF201CFFF7D0FF10BD00000C
:1070E000F7B50C1C051C081C1849171C019304F06B
:1070F0000FFF2F21061C201C04F0F9FE002805D1EB
:10710000201C5C2104F0F3FE002800D0441C002E5B
:1071100005D1201C04F0D0FE0230287102E0361B9D
:1071200002362E71A86804F0DDFD2E79701C04F083
:10713000CFFD0023A8608355019B077043702A7917
:10714000211C023A023004F0BEFEF7BD00C200006E
:1071500008B5006803689B68984708BDF8B5C37B0D
:10716000712B04D0792B24D1FFF788FF2BE0016F1E
:10717000002928D0036D021C013BDC0FE3185C10D2
:10718000E6B2031C1D1AEDB20232B54207D2957B5E
:1071900001339D73D77BFF01ED199D73F2E7E3B2D5
:1071A000C3189A7B002A01D00022DA730F30884777
:1071B00009E0446F002C06D0016D021C0139C9B2F0
:1071C0001032181CA047F8BD38B5041C0068151C07
:1071D00003680F221140E02211431B689847291CC5
:1071E000201CFFF71BFF38BD38B5041C0068151CB8
:1071F00003680F221140902211431B6898472068B2
:107200007F21036829401B6898472068ED110368B7
:10721000E9B21B68984738BDF8B5041C0D1C1E1C4C
:10722000171CFFF70BFF2068291C0368351C1B681F
:107230009847AB1BDBB2BB4205D22978201CFFF775
:10724000EDFE0135F5E7201CFFF7FFFEF8BD70B538
:10725000061C101C0D1C141C04F02EFE291CC2B2AE
:10726000231C301CFFF7D8FF70BD08B50A1C712124
:10727000FFF7EDFF08BD08B5006803681B68984775
:1072800008BDD02910D005D890290BD0C02910D125
:10729000C2650EE0F42909D0F52909D0E02908D10A
:1072A000426506E0826504E0026602E0426600E0B4
:1072B00082667047FF2900D1C266704742677047F7
:1072C00008B50023037343738373C118002201338D
:1072D000CA73402BF9D1031C4F331A70C36E026579
:1072E000934200D0984708BD10B50023041C0371D9
:1072F0008360FFF7E5FF201C10BD000010B5041CE3
:1073000000680368DB689847231C4F331A78002A0B
:107310000CD0F72805D100221A70201CFFF71EFFA1
:107320006EE0236DE218D073013364E0227B002A03
:1073300035D07F2833DC531EDBB2E2182373D073C1
:10734000002B5DD1637B002B5AD0D02B1ED005D8EB
:10735000902B0BD0C02B1FD1E36D18E0F42B0ED077
:10736000F52B0ED0E02B17D1636D00E0A36D002B41
:1073700012D0E17B227CC901A07B89180BE0636EEF
:1073800000E0A36E002B07D0207C03E0236E002BCF
:1073900002D0A07BE17B98470023637330E0EF28A5
:1073A00004DC0F220240A273F0221040F0281FD00C
:1073B0000ADCC02818D002DC902813D020E0D028A6
:1073C00012D0E0280ED01BE0F92816D004DC031CF4
:1073D000F43B012B06D913E0FF2811D1201CFFF745
:1073E0006FFF0DE0022300E001232373607307E0C9
:1073F00001221A700023236502E00248FFF72CFEE9
:1074000010BDC046B808002008B50248FFF76CFF61
:1074100008BDC046B808002007B500230093034804
:10742000191C1A1C00F0DEFC07BDC0463009002004
:1074300038B5134D1349281C00F0D1FD12491348EB
:1074400000F0CDFD1249134800F0C9FD1249134860
:1074500000F0C5FD1249134800F0C1FD124C13495C
:10746000201C00F0BCFD291C24222323104801F01D
:10747000AFF9211C002201230E4801F0A9F938BD03
:10748000FC090020001C0042000C0042000A002001
:1074900000100042040A002000140042F8090020F5
:1074A00000180042080A00200C0A002000080042D0
:1074B0003809002098090020014B18687047C04621
:1074C000100A002070B5041E09D0054B1D681E1C53
:1074D00000F0D2F83268631E521B9A42F8D970BD90
:1074E000100A0020024B1A6801321A607047C04629
:1074F000100A00200000000010B5041E00D18AE030
:1075000014281BD801280AD002280AD003280AD040
:1075100004280AD005280AD00B235C4308E0022483
:1075200006E00C2404E0182402E0242400E02D24CA
:1075300000230133A342FCD9C0466CE004F050FBA9
:107540003F4B9C420BD8354B334A03F01DFD02F0F4
:107550008BFA153C80B2272C59D83A4B58E03A4B5D
:10756000E2183A4B9A420CD82C4B2B4A03F00CFDF4
:107570002B4A2C4B03F008FD02F076FA802280B2F1
:1075800010E0334BE218334B9A420DD8234B224A7A
:1075900003F0FAFC244A254B03F0F6FC02F064FAEF
:1075A000C02280B292001EE02B4BE4182B4B9C4271
:1075B0000CD81A4B184A03F0E7FC1D4A1D4B03F088
:1075C000E3FC02F051FA802280B20BE0134B124A26
:1075D00003F0DAFC184A194B03F0D6FC02F044FA27
:1075E000A02280B2D2001E491E4B59801E4B0221A0
:1075F0001C888C431C801C8822431A801B4A5A809A
:107600001A88114319801A8A8242FCD303E0184B6E
:10761000C0180022E7E710BD00000000000048404D
:10762000000000000000D03F000000000000C03F4C
:10763000000000000000B03F000000000000903F8C
:107640005305000077FCFFFFACFAFFFF01100000BC
:10765000AAEAFFFF5415000055D5FFFFAA2A000033
:107660001C400000000C00400030004202400000BE
:1076700067FCFFFFC046C0467047FEE708B5034BF6
:107680001B68002B00D0984708BDC046140A002094
:107690005149F8B508230B605049514A0B608021CD
:1076A0000905916091614F491E2248684E4D9043F3
:1076B000022210434860A9694C4C0B43AB614C4B10
:1076C0000120A382A38A011C1A43A282002600F093
:1076D0008DFA301CE36899070ED4FA218900471C03
:1076E00002F018F9002905D1311C012000F01CFB23
:1076F00001235E40381CEDE70120011C00F014FB63
:107700003C4B01221A701A78D00704D5394A5278B6
:1077100052B2002AF7DB01229A605A7852B2002A4C
:10772000FBDB3549334A51605A7852B2002AFBDB01
:107730008221304AC90151805A7852B2002AFBDBBB
:10774000A28C80218A43A284E268D106FCD52B4911
:10775000264AD162E168254AC806FBD5918C2848A3
:1077600001439184E168214AC806FBD5918C02202F
:1077700001439184E2681106FCD51C4AD268500688
:10778000F8D5E268D106FCD500229A605A7852B248
:10779000002AFBDB1B49174A51605978154A49B248
:1077A0000029FADB206A184901402162216A802001
:1077B0008143216203219160144951605A7852B289
:1077C000002AFBDB00232B72114A6B72AB72EB7247
:1077D000104B1A60F8BDC0468844004198440041EF
:1077E0000044004100400041000400400008004007
:1077F0000C040000000C004001050100B805FF7DED
:10780000040A000000070300FFFCFFFF030601005D
:10781000006CDC020804002038B51049104CA1426D
:1078200006D104F02FFAFFF733FF00F0F7FA0BE070
:107830000C4D8D42F5D00023CA18E818A24204D29C
:10784000006804331060F7E7FEE79042E9D0064B8A
:10785000064A9342E5D2002204C3F9E70000002063
:10786000040500206CC8000004050020F010002072
:10787000014B18607047C046140A0020274BFA21BC
:10788000186810B5890002F001F8254B01389842BC
:107890001DD8244B244A5860106AC0210002000AF7
:1078A000090601431162002407229C601A601F4BE5
:1078B000FC211A6A0A431A62196AFF2212020A4359
:1078C0001A62196AA022D2020A431A6200E0FEE795
:1078D000201C0021013400F089F9132CF8D1144B3D
:1078E000144AA4215380144BC9009980134919618B
:1078F000112199703F21D9700221597018780143E4
:107900001970597EC9090129FBD00D4B53800D4BCD
:1079100041225A700C4A1A8110BDC046080400204A
:10792000FFFFFF0010E000E000ED00E00004004079
:107930001E400000000C0040004000420018000FF4
:107940002140000000480042FF0300001A4A0221C3
:1079500013788B431370517E174BC9090129FAD054
:10796000012816D000280AD002281CD11869134912
:107970000140196159780F208143032011E01869F3
:10798000F02109050143196159780F208143022034
:1079900007E0186909490140196159780F208143AE
:1079A00000E001435970137802210B431370537E9A
:1079B000DB09012BFBD0704700400042FFFFFFF0C6
:1079C00038B5182343431A4D0821EB185956041CA7
:1079D00000F048F9182C04D1164B02211A788A437A
:1079E0001A7018235C43144B2D1918691F22297C27
:1079F00090431140021C0A431A611A7B02210A4378
:107A00001A73187E01210C4A0842FAD0507EC00930
:107A10008842F6D0508B147E80B2214311765A7E74
:107A2000D209012AFBD0044A127BD107F7D438BD12
:107A300008C20000004800420040004218234343AF
:107A4000F7B55D4A061CD318DB680F1C980719D5DB
:107A5000182E17D1594B1B680A2B06D002D90A3BA6
:107A6000DF4002E00A22D31A9F40BB059A0D544B17
:107A700002211A811A780A431A70DA79D209012A86
:107A8000FBD098E008221340019300D188E018232E
:107A90007343494AD318197A0B1F012B03D849B2F3
:107AA000301C00F0DFF818235E43434B9E1912226E
:107AB000B05E072833D00EDC04282CD004DC00286C
:107AC00029D0012829D033E0052826D006282FD137
:107AD0003C4C02252CE080239B00984224D009DCFA
:107AE00080235B0098421DD00223FF3398421FD1B0
:107AF000354C1CE0C0239B00984207D0334B984282
:107B000007D0334B984213D1324C10E000250123AB
:107B10000FE00125FBE72B4C07E02A4C07E0294C3E
:107B2000032505E0284C00E02A4C002500E0012553
:107B30000023001205280BD8274A01F09DFE0303FD
:107B400005050707254902E0254900E02549518040
:107B50000222002B14D0244B04201988ED189143E5
:107B60001980198801431980198840200143198020
:107B7000F9B22976FF21197519880A431A801AE08B
:107B80002368103593432360E36BAD001343E36335
:107B90006519FF236F60236423681A4322600AE09B
:107BA000301C012100F022F8301C01217F2F00D869
:107BB000019900F0B9F8F7BD08C200000C040020DC
:107BC000004800420020004200240042010300005F
:107BD0000102000000280042000C00401A40000092
:107BE0001B4000001C400000002C0042182358439A
:107BF0001A4A30B5131808241C5701342DD0012916
:107C00001ED000290FD0022927D181565A68CB01F6
:107C1000134906205B1899184031087001219140E2
:107C20005960996119E081560D485A68CB011B18BB
:107C300099184031022008700121914059600CE0F0
:107C400080565A68C301064802251B189818403010
:107C500004789140AC430470996030BD08C20000C4
:107C60000044004118224243F8B52D4D0824AA18BB
:107C70001457031C621C50D0481C00240C284CD8FC
:107C800001F0FAFD071E1E1E1E1E1E1E1E0A0A0AF7
:107C90000A000124644240E0092902D1181C002195
:107CA00003E00A2904D1181C0221FFF79FFF23E0FB
:107CB00000240B2931D1181C0121FFF797FF2CE07C
:107CC00018225343EA185268EB560120141C044052
:107CD0005508DB01002C11D0124C1B195D193035F1
:107CE0002E780C010F21314021439A18C9B2297016
:107CF000403213781843107000240EE0094E0F270D
:107D00009B195D1930352E789A18BE433143C9B29C
:107D100029704032137818431070201CF8BDC046FB
:107D200008C2000000440041182358430F4A30B5F0
:107D3000131808241C57013417D080560C4C5B686C
:107D4000C0010219D418403404252570002903D03D
:107D5000012908D0012106E001229A40131C054A9E
:107D60008018436001E09940916130BD08C2000075
:107D7000004400411044004118235843084A082198
:107D800013185956013109D082560649D2015218AA
:107D90005B68106AD8400123184000E0002070475B
:107DA00008C2000000440041F7B5002401900D1CFA
:107DB000261C019A281C131919790A2200F0B7F819
:107DC0002E21071C281C00F068F80134C719F61989
:107DD000032CEED1019B281CD9790A2200F0A7F8C8
:107DE0003018FEBD30B503AC044D2478083505606D
:107DF000017142718371C47130BDC04688C60000F4
:107E0000044A054B08321A6000221A715A719A719D
:107E1000DA71704788C60000180A002010B5FFF715
:107E20002DFD0120FFF74EFB084C201C01F092FABB
:107E3000201C01F0EFFAFEF7A7FAFDF767FC044BF0
:107E4000002BFAD000E000BFF7E7C046D40F0020B7
:107E500000000000F8B5061C0C1C8F180025BC4261
:107E600007D0336821781B68301C984701342D18DF
:107E7000F5E7281CF8BD38B5051C0C1C081E07D0FA
:107E800004F01AF82B68021C5B68281C211C984718
:107E900038BD08B5FFF7EFFF08BD08B503681B68DC
:107EA000984708BD08B50249FFF7E5FF08BDC04681
:107EB000D2C1000038B5041CFFF7DDFF051C201CF3
:107EC000FFF7F0FF281838BDF0B58BB0151C09ABD3
:107ED0000022071C0E1C1A70012D00D80A256C46C2
:107EE0002334301C291C01F0D1FC031C6B43F61A0F
:107EF000F6B2211C092E01D8303600E03736F6B232
:107F00002670013C002801D0061CEAE7381CFFF768
:107F1000B2FF0BB0F0BD08B5002A04D10368C9B2A6
:107F20001B68984702E0D2B2FFF7CEFF08BD08B544
:107F3000FFF7F1FF08BD000008B5024B1860024BC7
:107F40009847C0461004002051C80000024B01228F
:107F500052421A607047C0461004002010B500213C
:107F60004022041C03F0D1FE0023201C2364636420
:107F700010BD026C10B53F23541C2340446CA34237
:107F800001D08154036410BD00230364436470472F
:107F9000436C026C934206D0C25C3F2101330B401C
:107FA0004364101C01E0012040427047026C436CA6
:107FB000D01A00D540307047436C026C934201D018
:107FC000C05C01E0012040427047026C3F23013257
:107FD0001A40436CD01A43425841C0B27047016006
:107FE0007047F7B508AC267804689D1E27686C1E9C
:107FF000A541ECB2920705683A4327063A432A6046
:108000000268072529405068B501002C00D05C03A8
:10801000294301430C435460F7BD30B50368C025C4
:108020001C68AD0312052A402243C024A40209049F
:1080300021401143196003685A6814435C6030BDE5
:10804000036801211A680A431A6002681168012353
:108050001942FBD1D1691942F8D170470368022156
:108060001A680A431A600268D3699907FCD47047FA
:108070000268137E9907FCD57047036800225A8373
:1080800070470368187E4007C00F70470368588B1D
:108090004007C00F70470368588B8007C00F7047B8
:1080A0000368588B0123184070470368188DC0B2CD
:1080B000704703681A7E01200242FBD01985704781
:1080C000036801211A680A431A60026811680123D3
:1080D0001942FBD1D1691942F8D1704703680221D6
:1080E0001A680A431A600368DA699107FCD45A8B4C
:1080F00030218A4310210A435A830268D369590701
:10810000FCD470470368802219685968D2020A4378
:108110005A6070470368034A196859680A405A60F0
:108120007047C046FFFFFBFF30B5036803241D689E
:108130000C40074A596824040A40ED0622436D0F9B
:108140005A60052D03D10268D3695907FCD430BDAC
:10815000FFFFFCFF49001143036830B5CDB2598BD6
:10816000032409092140012904D0598B09090C4035
:10817000022CF4D1596AC90AC90229435962036819
:10818000002A03D11A7ED107FCD50DE0187E01220A
:108190004008104008D1197E1142F7D05968C0221A
:1081A00092020A435A6003E05B8B01209B089843CC
:1081B00030BD0368283319700268107E012318400F
:1081C00003D1518B1942F8D003E0528B181C92084E
:1081D0009043704703682833197003681A7E51076B
:1081E000FCD55B8B01209B08984370470368186897
:1081F000C006400F053843425841C0B2704703687B
:108200001868C006400F043843425841C0B2704756
:108210000368187E4007C00F70470368187E01236B
:10822000184070470368588BC006C00F704703683A
:10823000187E8007C00F70470368588B0007C00F77
:10824000704703681A68D206520F052A02D11A7EB7
:108250009107FCD528331878C0B270470368224ACA
:1082600030B5934211D0214A934211D0204A934213
:1082700011D0204A934211D01F4A934211D01F4A75
:10828000934230D10E2319220DE0092314220AE073
:108290000A23152207E00B23162204E00C231722E1
:1082A00001E00D231822DCB2154901209B08A040F3
:1082B0009B0008605B180320C021890004405D58C2
:1082C000E000FF248440A5432C1CC0258540281CC9
:1082D000204358508023DB011A430A4B5A805A78B6
:1082E00052B2002AFBDB30BD00080042000C004205
:1082F000001000420014004200180042001C00421E
:1083000000E100E0000C0040F8B5041C151C0E1C38
:108310001F1CFFF7A3FF201CFFF792FEB1001C22D9
:108320000A4069072368090C0A431A6022688423FB
:108330009375012E1AD10821012D00D110210C4B6B
:1083400079431868C00001F0A1FA236807219A89CF
:108350000140D2044903D20C0A439A8123680004E5
:10836000C20C9889400B400310439881F8BDC04669
:108370000804002038B5041C0D1CFFF76FFF201CFB
:10838000FFF79EFE236814221A60074B69001868E5
:1083900001F07CFA2468421EE068FF231A409843EB
:1083A0001043E06038BDC0460804002010B5041C2E
:1083B000FFF782F8E0602368201CDB6898470028FC
:1083C00008DAFFF779F8E368C01AA3689842F2D395
:1083D0000120404210BD81607047000038B50D1C7F
:1083E0000749041C01F03EF9281CFFF7DFFF0028B5
:1083F00004DBC1B2201C01F072F9F5E7201C38BD86
:10840000D4C10000831E052B01D80E4B14E0031CC1
:10841000083B012B01D80C4B0EE00C2801D00A2898
:1084200005D10A4B02211A888A431A8008E00D28D8
:1084300001D00B2804D1064B1A6802218A431A6026
:108440007047C0460020004200240042002C004239
:1084500000280042114A80214903131D30B5D96715
:10846000C0235B00D150C5239B00D058FF24A043FC
:10847000D0500B480B4B042558800B4B02201C8816
:1084800084431C801C882C431C805C7B01252C436E
:108490005C731C8820431880116030BD00E100E04F
:1084A0001C400000000C00400034004200000000AE
:1084B000F0B585B00190904B081C14380D1C161CAB
:1084C0000090984200D9F7E0081C03F089FB029065
:1084D0000391002E08D0BC235E43884B1E60FFF73B
:1084E000B9FF874B019A1A70019818234343854AB4
:1084F000D3181222985E072837D00EDC04282CD01F
:1085000004DC002829D001282CD03BE0052829D004
:10851000062837D17C4C022729E080239B00984213
:108520002BD009DC80235B00984223D00223FF3349
:10853000984227D1754C24E0C0239B00984207D075
:10854000734B984207D0734B98421BD1724C18E082
:108550000027012617E0012711E000276A4C3E1C86
:10856000381C13E0684C012701E0674C0327002604
:10857000301C0BE0654C002704E0674C00273E1CD4
:1085800001E001270026001205280BD8634B01F0FB
:1085900073F9030305050707614A02E0614A00E039
:1085A000614A5A80009B502B11D92B1C653BF92B3B
:1085B00011D95E485E4B2A189A4210D95D4A5E4B2B
:1085C000AD189D4210D83F4B3D4A80250AE03E4AF7
:1085D0003E4BE02506E03E4A3E4BC02502E0A0258A
:1085E0003D4A3E4BED0003E0C025AD003C4A3D4B0B
:1085F000101C191C01F042FD029A039B02F0C4FCFE
:10860000021C0B1C3848394902F054F8384A394BDF
:1086100002F04AFF01F078F801F026FAC0B24308F0
:1086200000900198029318234343364A0821D31837
:108630005956FFF717FB0222002E22D03F4B198814
:1086400091431980191CCA7B3C4BD209FBD11A8873
:108650000C218A4304210A431A801988E022D2009F
:108660000A431A801A8860218A431A80029AD1B27A
:10867000FA1811760098022118751A880A431A8090
:108680001AE0236893432360A3689A07FCD4226806
:108690002B4B13401D432560E36B07229343E36399
:1086A0003B1C1033009A9B000298E3185860226428
:1086B000236802221343236005B0F0BDC046C046C4
:1086C000000000000000304000000000000090406A
:1086D000000000000000704000000000000050405A
:1086E00000000000000020400000000080845E4187
:1086F000000000000000F03F94610000200A00200C
:10870000240A002008C20000002000420024004289
:10871000010300000102000000280042000C00409C
:108720001A4300001B4300001C430000A1FEFFFF92
:108730000D06000093F8FFFF0F0E0000002C004212
:10874000FFF8FFFFC046C04610B50B4CA37BDA070D
:108750000DD50A4A1368013B1360002B07D1084B63
:108760001878FFF74FFE2388022293432380A27BD1
:10877000FE231343A37310BD00340042200A0020DF
:10878000240A00200120704710B5041C0069FFF77F
:1087900057FC201C1430FFF7F7FB10BD08B500692B
:1087A000FFF766FC08BD08B51430FFF7FFFB08BDF6
:1087B00008B51430FFF700FC08BD08B51430FFF70A
:1087C000E7FB08BD08B50069FFF773FC012008BD91
:1087D000F8B51D1C00234360FA239B008360084BFF
:1087E000041C0833036014300F1C161CFFF7B6FB83
:1087F000231C5C332761201C1E705D70F8BDC046D1
:10880000A8C6000010B5041C0069FFF73AFC002858
:1088100007D02069FFF749FC011C201C1430FFF72A
:10882000A8FB2069FFF732FC002809D12069FFF777
:1088300032FC002804D12069FFF732FC002802D066
:108840002069FFF71AFC10BD0F23081C984330382D
:10885000434258417047002070470F2319400129B7
:1088600005D002394B424B410220C01A00E00020E3
:1088700070470000F0B5031C85B003915C33041C05
:10888000182718783B1C43431A4E0821F3185956F1
:10889000151CFFF7E7F9231C5D33187808214743BF
:1088A000F6197156FFF7DEF901210A1C039B2069B6
:1088B000FFF72AFD291C201CFFF7CDFF291C071CF0
:1088C000201CFFF7CAFF291C061C201CFFF7BCFF59
:1088D000331C0090391C20690122FFF782FB2069BC
:1088E00001210322FFF799FB2069FFF7B7FB05B0D1
:1088F000F0BDC04608C2000008B51322FFF7BAFF5A
:1089000008BD000008B50248FFF77CFF08BDC0465F
:108910009809002008B50248FFF774FF08BDC0465B
:1089200038090020094B1A1CFC32506891681A1C47
:10893000884206D1FF335B7A002B02D101204042EE
:1089400003E0131CFC339B68D05C7047280A0020AE
:1089500013B502686B46D97107335468191C01229C
:10896000A04716BDF0B58022C1B069465200022072
:1089700000F0A4FCEFF3108501231D40AC4672B655
:10898000104A0021131CFC335B68814212D0141C76
:10899000FF34667A002E0DD16D466F5C5E1CD75495
:1089A000F3B2161CFC36B668B34201D101266672DA
:1089B0000131EAE7FC3253606346002B00D162B616
:1089C00041B0F0BD280A002038B5184C051C231C06
:1089D000FC335A689B689A420DD1231CFF335B7AA3
:1089E000002B08D1022000F041FC002803D02B68A6
:1089F000281C9B699847231CFC335A689B689A4241
:108A000007D1231CFF335B7A002B02D101204042A7
:108A10000AE0231CFC339A68A05C9A68FF34013298
:108A2000D2B29A600023637238BDC046280A002083
:108A300008B5032000F0B6FB08BD00000C4B1A1C63
:108A4000FF32527A002A10D11A1CFC325168926807
:108A5000914204D14A2207490120FF328854FC3355
:108A600058689B68C01AC0B201E08020400070477F
:108A7000280A00200050004110B5074B041CDB7988
:108A8000002B04D0032000F0E7F8002801D00123D8
:108A90006360002010BDC0465C04002008B5037868
:108AA000422102330370024800F04EF908BDC0466F
:108AB0001804002010B50178031C42780020A12979
:108AC00007D1212A2DD11748072100F03DF90120B7
:108AD00027E0212925D1202A04D10721114800F0BF
:108AE000A7FB04E0222A10D19A780E4BDA710D4BC5
:108AF00096221968D200914210D1DC7901231C40E2
:108B00000CD1FA20FFF718FA0AE0232A09D1DA7803
:108B10009B7812021A43044B1A6002E0FFF716FA20
:108B2000002010BD5C0400201404002070470000E9
:108B3000054B00225A60FA2292009A60034A0832DA
:108B40001A60034A1A617047340B0020D8C600002F
:108B5000D40F002070B5C2B219495301CB189E68DA
:108B6000184DC0242E40A40526439E60164E800159
:108B700009683018083258605201505C0726B0432B
:108B80000126304350549E6935402C439C610F4C64
:108B90005C61505C7024A0431024204350549C68B6
:108BA0000B488A182040802464032043986098680A
:108BB0004021800B8003986053790B43537170BD43
:108BC000DC0F0020FFFFFF8F100E0020500C002054
:108BD000FF3F00F038B5041C08CC01211A78051CB1
:108BE0000A431A708022201C0021520003F08DF8E5
:108BF0002B689A78D107FCD45C6238BD134BF0B572
:108C00001B6899035A029B01C90ED20E5B0F1F29E4
:108C100000D105211F2A00D11D22072B00D10323DB
:108C200004688E01278D0A491F253940314321856B
:108C300001682A400C8DAC4322430A85026819035F
:108C4000108D044B03400B431385F0BD246080005E
:108C50003FF8FFFFFF8FFFFFF0B5264B85B01B6885
:108C6000071C0E1C141C002B40D08023DB019A42F1
:108C70003CD88022204B12055A61002C34D0251E8E
:108C80003F2D00D940251D4ABB01D318181C311CAB
:108C90002A1C039303F030F8F9B2194A03984B01E8
:108CA000D3185861A804800C039002919969880B2D
:108CB00003998003014399610299126808314B01BD
:108CC000D3180220D87101925A798020039242422F
:108CD000039810435871019A4B01D318DB79980718
:108CE000F9D5641B7619C8E7201C01E00120404239
:108CF00005B0F0BDE010002000440041500C002001
:108D0000DC0F002070B50D4D8301ED18061C281CEA
:108D1000141CF6B202F0F0FF094B76019B195D615D
:108D20009969084A201C0A409A619A69A104920B29
:108D3000890C92030A439A6170BDC046500C002012
:108D4000DC0F0020FF3F00F0F8B5114B071C1B782B
:108D50000C1C002B1AD10F4B1E78002E01D10D1CBC
:108D60000AE00D4D0D482E88391C8019221C361939
:108D700002F0C2FF2E8009E0002D07D0B9192A1C8D
:108D80000020FFF7BFFF36182D1AF5E7201CF8BDAD
:108D9000D30F0020D10F00204C0C00204C0B0020E2
:108DA00008B5044B00221A70034B04481988FFF7DA
:108DB000CBFF08BDD10F00204C0C00204C0B002035
:108DC000F8B5051C00AF012920D94B085B0008331A
:108DD000DB086A46DB00D21A954668460122AB18CA
:108DE000013B1C785300002C0AD1C02292001A4388
:108DF000191C0280FFF7A8FF431E9841C0B206E08D
:108E0000DEB2B142F1D0C4520132E8E70020BD46E3
:108E1000F8BD37B500236C46E3710734051C201CF0
:108E2000FFF73CFE2B681818286020783EBD000034
:108E3000F0B51D4B87B000250090012702A81F70D8
:108E40000295FFF7E6FF03AC09260190291C201CC0
:108E5000321C02F05AFF022363708023E371FA236D
:108E60002372029B26709B196380019B677123719B
:108E70000D4B1D70009BB34204D1201C191CFFF741
:108E800063FF0DE0094B311C1F70094B201C1D8036
:108E90000295FFF759FF02A8FFF7BBFFFFF780FF1E
:108EA000012007B0F0BDC046D30F0020D10F002035
:108EB0004C0C002008B5C278031C022A06D1C088D9
:108EC000FFF7B6FF431E9841C0B225E0012A04D146
:108ED000C188124811291BD817E00020032A1BD192
:108EE0009A78824205D10E48D98803788B420CD8F3
:108EF0000EE0022A02D199790A4803E0012A0BD137
:108F000099790948FFF75CFF06E0C9B2002900D152
:108F10000178FFF719FF012008BDC04610C7000007
:108F200000C7000022C7000004C7000038B583292D
:108F300016D1C2B230495301CB189D692F4C800124
:108F40002C40C025AD052C439C612D4C08322018C7
:108F500058610B685201D15C70208143402043E08E
:108F6000022923D1C1B2244A4B01D3189D68234C56
:108F700080012C40C025AD052C439C60214C12681B
:108F80002018083158604901885C0724A043032455
:108F90002043885499681C4A0A40802149030A43A7
:108FA0009A609A68920B92039A6024E082291ED1FB
:108FB000C2B211495301CB189D69104C80012C405D
:108FC000C025AD052C439C610D4C0832201858611A
:108FD0000B68520199180C79802040422043087197
:108FE000D15C7020814330200143D15403E000293B
:108FF00001D1FFF7AFFD38BDDC0F0020FFFFFF8F71
:10900000500C0020100E0020FF3F00F00F4B9A691B
:10901000920B92039A611B680222FF331A729979AC
:10902000802252420A439A711A7A9107FCD5084B62
:10903000011C987A7F221140904308439872997AD4
:10904000802252420A439A727047C046DC0F0020C9
:109050000050004110B50124054BA200D158002951
:1090600005D0201C0134FFF761FFE4B2F4E710BD26
:109070006404002037B5041C40780B2871D800F038
:10908000FBFB081A7026703B3F06434662680020CF
:1090900068E0207801A9002802D10870487008E033
:1090A00000230B704B70304B1B78012B00D10B70E1
:1090B000002002224AE0A2780023012A04D101A95B
:1090C0000B704B70294BEFE7274A137044E0A578EB
:1090D000012D06D1254B01A900201D7008702A1C06
:1090E00034E0002D08D1204B01201870204B9A69E4
:1090F000920B92039A6135E0A078FFF787FF30E08A
:10910000201CFFF7D7FE2DE000201A491DE0237830
:109110000020DA0626D1FFF79DFFA278154B2A2101
:109120001A60134AFF3113680224585C20435854D4
:109130004A21FF315C5C012004435C5493699B0B22
:109140009B0393610EE00C4900200122FFF7DAFD3A
:1091500007E0A278084B1A60054B9A69920B9203BC
:109160009A6101203EBDC046D00F0020D20F0020E2
:10917000DC0F0020E0100020D80F002008B5027995
:1091800000239A4209D1FFF795FC031E05D1044B39
:109190009A69920B92039A610123181C08BDC0467C
:1091A000DC0F0020C3B2094A5901511889688904AB
:1091B0000AD0106808335B01C018427980235B42F3
:1091C000134343710223C3717047C046DC0F002074
:1091D00070B5C2B2134B14495401800118180B1911
:1091E00058609D681148083228408025AD02284308
:1091F000986098684026800B800398600B68500147
:1092000018180579354305715001181880794506FD
:10921000FAD550011818C079C507FAD50C19A068FD
:10922000C0B270BD100E0020DC0F0020FF3F00F028
:1092300038B50C4B0C1C1B684021FF335A79051CB8
:109240000A435A710020FFF7C3FFA04200D9201C37
:109250000023A34204D0044A9A5CEA540133F8E79D
:1092600038BDC046DC0F0020100E0020034BC0B2FA
:109270004001181880688004800C7047DC0F0020C3
:1092800010B5C0B20C4940010B189A689204920CB8
:109290003F2A08D9141C9A68403CA404920BA40CE1
:1092A0009203224302E09A68920B92039A60081894
:1092B0008068C0B210BDC046DC0F0020F7B5214B5E
:1092C000071C1B680191141C002B35D01E4B082273
:1092D000C5B21E4E1A606B01F3189A689204920C84
:1092E000A24202D29C68A404A40C381CFFF7C8FF59
:1092F000326869015318FF335A7A009101210A43F9
:109300001349BF015A72C9190198221C02F0F4FCDA
:109310000020844214D0009AB3189B689B048342B7
:109320000DD1336808356D015D192B794022134347
:109330002B710123EB7102E00120404200E0201C70
:10934000FEBDC046E010002094440041DC0F002028
:10935000100E002038B5264B2021DA69051C0A437F
:10936000DA61244B01201A78062402431A70224B3A
:109370000F221978914319701978214319701F49E8
:109380000C782043087019780A401A701A78602106
:109390000A431A701A4B1B4A5A805A78D209FCD1D8
:1093A0001948FEF765FA194C201CFFF713FC201C26
:1093B000FFF724FC23687F2219780A401A701A7874
:1093C00004210A431A701A890C218A431A81C12187
:1093D0000F4A890050580002000A50508021116045
:1093E0001A7802210A431A7001232B7038BDC04637
:1093F00000040040584400413C44004159440041AD
:10940000000C004006400000B9950000DC0F002071
:1094100000E100E00078002810D0094B01211B6812
:109420001A898A431A811A8B08210A431A831A8BD4
:1094300004210A431A83034B00221A607047C04676
:10944000DC0F0020E0100020014A024B1A60704738
:1094500000500041DC0F002008B5022807D1134B53
:109460009B6C9B0420D01248FFF77CFA1CE0032879
:109470000BD10E4BB2221B685200985C80214942EE
:1094800001439954022168220CE001280CD1074BBA
:1094900092221B685200985C8021494201439954F2
:1094A00002212822FF32995408BDC046DC0F00205B
:1094B000340B0020394B70B51C78002C6CD1384D22
:1094C00029688B8B1A070DD5201CFFF743FB2B68EF
:1094D00010201A1CFF32917A01439172314A1460B4
:1094E00008229A832B689A8B510701D504229A830C
:1094F000FF331A7AD10625D510221A725A794021E3
:109500000A4329485A71027860231A4202D1FFF7B0
:10951000B1FD01E0FFF732FE002806D02B68802263
:10952000FF33997952420A4301E0204B20229A717D
:109530002B68FF331A7A510604D540221A72597AE1
:109540000A435A721A4B802212059A61194B08225B
:109550001A602A68FE23168C00241E40E0B2002EFA
:109560001AD0321C012322411A420ED0221C296833
:10957000083252018A18D17919420AD1D279DA40D7
:109580001A4206D10123A3409E430134092CE5D1A0
:1095900002E0FFF761FFF5E770BDC046D10F002084
:1095A000DC0F0020E0100020100E0020FF500041D2
:1095B000004400419844004108B5FFF77BFF08BD17
:1095C00038B5049D1C1C401AEB1A5843511A00F080
:1095D000ABF9001938BD10B5041C006802F082FB1D
:1095E000201C10BD10B5041C0068002801D002F03A
:1095F00079FB00232360A360636010BD38B5041CB1
:109600000D1C0068013102F025FC002801D021C4A6
:10961000012038BD036810B5041C002B02D043683C
:109620008B4209D2201CFFF7E9FF002805D0A36870
:10963000002B01D122681370012010BD70B50E1CE3
:10964000111C041C151CFFF7E5FF002803D1201C8A
:10965000FFF7C8FF04E0A5602068311C02F024FC7D
:10966000201C70BD38B50023041C0D1C0360436032
:109670008360994207D0081C02F01EFC291C021CC2
:10968000201CFFF7DBFF201C38BD38B5041C0D1E65
:1096900008D0081C02F010FC291C021C201CFFF73B
:1096A000CDFF01E0FFF79EFF201C38BDF8B5041C7C
:1096B0000F1C866801D100250FE00125002A0CD07F
:1096C0009619311CFFF7A6FF0028F4D02268A36882
:1096D000391CD01802F0E8FBA660281CF8BD07B5BD
:1096E000002201AB19705A70191C0122FFF7DEFF2E
:1096F0000EBD031C9A680020914203D21B6883426E
:1097000000D0585C70470000F0B556464D464446C0
:109710005F46F0B4524A4F007F0D83B0BE18041C60
:109720000D1C89468A4680460197132E2ADC002E9E
:1097300056DB4C4F021C37413B1C0B4003439C46FD
:10974000BB4667460B1C002F13D0424B404A00F02B
:1097500095FC414A414B00F073F9002807D0002DD9
:109760004EDB53465F46BB430022994690464B462C
:109770004246101C191C03B03CBC90469946A246B8
:10978000AB46F0BD332E0BDD0B1C8021021CC90043
:109790008E42EED1291C00F071FC021C0B1CE8E784
:1097A000019F314ABB1801225242DA4093465F467C
:1097B000021C0B1C0742DCD0264B254A00F05EFC45
:1097C000254A264B00F03CF90028D0D0002D1DDBA7
:1097D00042465B469A439046D1464B464246C8E7CE
:1097E0001C4B1B4A00F04AFC1B4A1C4B00F028F99A
:1097F0000028BCD0002D17DB0027B846B946B6E7D5
:1098000080235B0333415E19B246AAE7142E19D0B8
:10981000164B019A9F1A0123BB401B199C420FD97A
:109820006F1CBA469846D3E76B005B081C4302D115
:109830000027B8469BE70E4F00239846B94696E7A7
:109840009846C5E76B1C9A46C2E7C046C046C0466C
:109850009C7500883CE4377E00000000000000009A
:1098600001FCFFFFFFFF0F00EDFBFFFF33040000D3
:109870000000F0BFC046C04602B471464908490026
:10988000095C49008E4402BC7047C046002934D0B0
:109890000123002210B488422CD301242407A142C2
:1098A00004D2814202D209011B01F8E7E400A1427F
:1098B00004D2814202D249005B00F8E7884201D31A
:1098C000401A1A434C08A04202D3001B5C082243F2
:1098D0008C08A04202D3001B9C082243CC08A04263
:1098E00002D3001BDC082243002803D01B0901D04F
:1098F0000909E3E7101C10BC7047002801D00020C4
:10990000C04307B4024802A14018029003BDC046FC
:10991000D90000000029F0D003B5FFF7B9FF0EBC55
:109920004243891A1847C046002941D010B4041C8C
:109930004C40A44601230022002900D549420028BA
:1099400000D5404288422CD301242407A14204D2EE
:10995000814202D209011B01F8E7E400A14204D2CE
:10996000814202D249005B00F8E7884201D3401AE5
:109970001A434C08A04202D3001B5C0822438C0807
:10998000A04202D3001B9C082243CC08A04202D371
:10999000001BDC082243002803D01B0901D0090961
:1099A000E3E7101C6446002C00D5404210BC704711
:1099B000002806D003DB0020C043400801E08020DF
:1099C000000607B4024802A14018029003BDC04639
:1099D000190000000029EBD003B5FFF7A7FF0EBC6C
:1099E0004243891A1847C0467047C0468446101C37
:1099F00062468C46191C634600E0C0461FB501F064
:109A000045FA002801D40021C8421FBD10B501F05D
:109A100075F94042013010BD10B501F037FA002849
:109A200001DB002010BD012010BDC04610B501F0C3
:109A30002DFA002801DD002010BD012010BDC04618
:109A400010B501F0A5F9002801DC002010BD0120AF
:109A500010BDC04610B501F09BF9002801DA0020C6
:109A600010BD012010BDC04638B50E4B0C4A041C79
:109A70000D1CFFF7EFFF002804D1201C291C02F069
:109A80003DF838BD074B064A201C291C01F00CFD8F
:109A900002F034F880231B06C018F2E7C046C04627
:109AA000000000000000E041F8B543024400C50F8B
:109AB0004E024800240E2A1C9B09000EC90FB6094D
:109AC0008D4256D0221A002A00DC83E000281AD1E9
:109AD000002E00D06FE0580704D00F221A40042A4D
